8=FIX.4.4|9=75|35=A|34=1092|49=TESTBUY1|52=20180920-18:24:59.643|56=TESTSELL1|98=0|108=60|10=178|
8=FIX.4.4|9=148|35=D|34=1080|49=TESTBUY1|52=20180920-18:14:19.508|56=TESTSELL1|11=636730640278898634|15=USD|21=2|38=7000|40=1|54=1|55=MSFT|60=20180920-18:14:19.492|10=092|
8=FIX.4.4|9=289|35=8|34=1090|49=TESTSELL1|52=20180920-18:23:53.671|56=TESTBUY1|6=113.35|11=636730640278898634|14=3500.0000000000|15=USD|17=20636730646335310000|21=2|31=113.35|32=3500|37=20636730646335310000|38=7000|39=1|40=1|54=1|55=MSFT|60=20180920-18:23:53.531|150=F|151=3500|453=1|448=BRK2|447=D|452=1|10=151|
8=FIX.4.4|9=63|35=5|34=1091|49=TESTBUY1|52=20180920-18:24:58.675|56=TESTSELL1|10=138|


8=FIXT.1.1|9=100|35=A|49=initiator|56=acceptor|34=1|52=20231119-21:45:00.000|98=0|108=30|1137=9|10=123|
8=FIXT.1.1|9=150|35=D|49=initiator|56=acceptor|34=2|52=20231119-21:46:00.000|11=ClOrdID123|21=1|38=1000|40=2|44=50.75|54=1|55=GOOG|59=0|60=20231119-21:46:00.000|10=245|
8=FIXT.1.1|9=200|35=8|49=acceptor|56=initiator|34=3|52=20231119-21:47:00.000|11=ClOrdID123|14=0|17=ExecID456|20=0|32=0|37=OrderID789|38=1000|39=0|54=1|55=GOOG|150=0|151=1000|10=055|
8=FIXT.1.1|9=325|35=i|34=105|49=MARKET_MAKER|56=EXCHANGE|52=20231120-14:30:00.000|117=QID12345|296=1|302=1|295=1|299=ENTRY_A|55=GOOG|167=MLEG|655=1|132=50.00|133=51.00|555=2|600=GOOG|602=OC|610=20251000|624=1|600=GOOG|602=OC|610=20251100|624=2|10=154|

8=FIX.4.4|9=168|35=D|34=105|49=CLIENT_APP|52=20231027-14:30:00.123|56=FLUENT_PROD|1=RISK_ACCT_A|11=ClOrdID_12345|55=EUR/USD|54=1|60=20231027-14:30:00.123|38=1000000|40=2|44=1.0550|59=3|10=072|
8=FIX.4.4|9=205|35=8|34=2001|49=FLUENT_PROD|52=20231027-14:30:00.128|56=CLIENT_APP|37=FluentID_999|11=ClOrdID_12345|17=ExecID_001|150=F|39=2|55=EUR/USD|54=1|38=1000000|32=1000000|31=1.0550|76=EBS|60=20231027-14:30:00.127|10=195|

8=FIX.4.4|9=135|35=V|34=501|49=CLIENT_APP|52=20231027-14:30:05.100|56=APHELION_EFX|262=MDReq_EURUSD|263=1|264=1|267=2|269=0|269=1|146=1|55=EUR/USD|10=210|
8=FIX.4.4|9=288|35=W|34=6005|49=APHELION_EFX|52=20231027-14:30:05.150|56=CLIENT_APP|262=MDReq_EURUSD|55=EUR/USD|268=2|269=0|270=1.0550|271=1000000|299=Tier1|117=QID_BID_01|269=1|270=1.0552|271=1000000|299=Tier1|117=QID_OFFER_01|10=158|